:100000000C9463030C9475030C9475030C947503A2
:100010000C9475030C9475030C9475030C94750380
:100020000C9475030C9475030C9475030C940609D9
:100030000C9475030C9475030C9475030C94750360
:100040000C94BC080C9475030C9475030C94750304
:100050000C9475030C9475030C9475030C94750340
:100060000C9475030C947503DB04080539056A05C7
:100070009705C205F1051C0650067D06AA06D106A5
:10008000040733075E078B07910A9C0AA70AB20A86
:10009000BD0AC80AD30AEA0A010B240B470B5E0B00
:1000A000750B800B970B0000C8430080C74300000E
:1000B000C7430000C6430080C5430000C54300009D
:1000C000C4430080C3430000C3430000C243008018
:1000D000C1430080C0430000C0430000BF43008014
:1000E000BE430080BD430000BD430000BC43008010
:1000F000BB430080BA430000BA430000B94300008C
:10010000B8430080B7430080B6430080B543000089
:10011000B5430000B4430000B3430000B243008085
:10012000B1430080B0430080AF430080AE43008005
:10013000AD430000AD430000AC430000AB43000002
:10014000AA430000A9430000A8430000A743000001
:10015000A6430000A5430000A4430000A343000001
:10016000A2430000A1430000A04300009F43000001
:100170009E4300009D4300009C4300009B43000001
:100180009A43000099430000984300809643008002
:100190009543008094430080934300809243000085
:1001A00091430000904300008F4300008E43008085
:1001B0008C4300808B4300808A4300008943000009
:1001C000884300008743008085430080844300808B
:1001D000834300008243000081430000804300000D
:1001E0007D4300007B43000078430000764300001D
:1001F00073430000714300006E4300006C43000035
:10020000694300006743000064430000624300004C
:100210005F4300005D4300005A4300005843000064
:100220005543000052430000504300004D4300007E
:100230004B4300004843000048430000494300008E
:100240004B4300004C4300004E4300004F4300006E
:100250005143000052430000544300005543000046
:1002600056430000584300005A4300005B4300001F
:100270005D4300005E4300006043000061430000F6
:1002800063430000644300006643000068430000CD
:10029000694300006B4300006D4300006E430000A3
:1002A0007043000072430000734300007543000078
:1002B00077430000784300007A4300007C4300004D
:1002C0007E430000804300808043008081430080A3
:1002D0008243008083430080844300008543000004
:1002E00086430000874300008843000089430000E4
:1002F0008A4300008B4300008C4300008D430000C4
:100300008E4300008F4300009043000091430000A3
:100310009243000093430000944300009543000083
:100320009643000097430000984300809943008063
:100330009A4300809B4300809C4300809D43008043
:100340009E430000A0430000A1430000A243000020
:10035000A3430080A4430080A5430080A64300007F
:10036000A8430000A9430000AA430080AB430080DB
:10037000AC430000AE430000AF430080B0430080B8
:10038000B1430000B3430000B4430080B543008094
:10039000B6430000B8430000B9430080BA430000F0
:1003A000BC430000BD430080BE430080BF4300004B
:1003B000C1430080C2430000C4430000C543008025
:1003C000C6430000C8438182838485868788898AE2
:1003D0008B8C8D8E8F909192939495969798999AF5
:1003E0009B9C9D9E9FA0A1A2A3A4A5A6A7A8A9AAE5
:1003F000ABACADAEAFB0B1B2B3B4B5B6B7B8B9BAD5
:10040000BBBCBDBEBFC0C1C2C3C4C5C6C7C8C9CAC4
:10041000CBCCCDCECFD0D1D2D3D4D5D6D7D8D9DAB4
:10042000DBDCDDDEDFE0E1E2E3E4E5E6E7E8E9EAA4
:10043000EBECEDEEEFF0F1F2F3F4F5F6F7F8F9FA94
:10044000FBFCFDFEFF00000102030405060708098E
:100450000A0B0C0D0E0F1011121314151617181984
:100460001A1B1C1D1E1F2021222324252627282974
:100470002A2B2C2D2E2F3031323334353637383964
:100480003A3B3C3D3E3F4041424344454647484954
:100490004A4B4C4D4E4F5051525354555657585944
:1004A0005A5B5C5D5E5F6061626364656667686934
:1004B0006A6B6C6D6E6F7071727374757677787924
:1004C0007A7B7C7D7E7F7F7F7F7F7F7F7F7F7F7F4B
:1004D0007F7F7F7F7F7F7F7F7F7F7F7F7F7F7F7F2C
:1004E0007F7F7F7F7F7F7F7F7F7F7F7F7F7F7F7F1C
:1004F0007F7F7F7F7F7F7F7F7F7F7F7F7F7F7F7F0C
:100500007F7F7F7F7F7F7F7F7F7F7F7F7F7F7F7FFB
:100510007F7F7F7F7F7F7F7F7F7F7F7F7F7F7F7FEB
:100520007F7F7F7F7F7F7F7F7F7F7F7F7F7F7F7FDB
:100530007F7F7F7F7F7F7F7F7F7F7F7F7F7F7F7FCB
:100540007F7F7F7F7F7F0183838383838383838315
:10055000838383838383838383838383838383836B
:10056000838383838383838383838383838383835B
:10057000838383838383838383838383838383834B
:10058000838383838383838383838383838383833B
:10059000838383838383838383838383838383832B
:1005A000838383838383838383838383838383831B
:1005B000838383838383838383838383838383830B
:1005C0008383838383FF000306090C0F1215181B16
:1005D0001E2124272A2D303336393B3E41434649DC
:1005E0004B4E50525557595B5E6062646667696B4B
:1005F0006C6E7071727475767778797A7B7B7C7D9E
:100600007D7E7E7E7E7E7F7E7E7E7E7E7D7D7C7B11
:100610007B7A7978777675747271706E6C6B6967B6
:10062000666462605E5B59575552504E4B49464373
:10063000413E3B393633302D2A2724211E1B181505
:10064000120F0C09060300FDFAF7F4F1EEEBE8E5F2
:10065000E2DFDCD9D6D3D0CDCAC7C5C2BFBDBAB7D9
:10066000B5B2B0AEABA9A7A5A2A09E9C9A9997954A
:100670009492908F8E8C8B8A8988878685858483D7
:100680008382828282828182828282828383848543
:1006900085868788898A8B8C8E8F9092949597997E
:1006A0009A9C9EA0A2A5A7A9ABAEB0B2B5B7BABDA1
:1006B000BFC2C5C7CACDD0D3D6D9DCDFE2E5E8EBEF
:1006C000EEF1F4F7FAFC11241FBECFEFD8E0DEBF45
:1006D000CDBF21E0A0E0B1E001C01D92A833B20778
:1006E000E1F70E94DE090C949C0C0C9400003FB7CB
:1006F000F8948091340190913501A0913601B09128
:10070000370126B5A89B05C02F3F19F00196A11D02
:10071000B11D3FBFBA2FA92F982F8827820F911D97
:10072000A11DB11DBC01CD0142E0660F771F881FDE
:10073000991F4A95D1F708958F929F92AF92BF92D9
:10074000CF92DF92EF92FF926B017C010E947703C0
:100750004B015C01C114D104E104F104F1F00E94E9
:100760007703DC01CB0188199909AA09BB09883EE6
:100770009340A105B10570F321E0C21AD108E10848
:10078000F10888EE880E83E0981EA11CB11CC114EC
:10079000D104E104F10419F7DDCFFF90EF90DF9071
:1007A000CF90BF90AF909F908F90089580916F00F1
:1007B0008D7F80936F002BE130E08091B3008F3705
:1007C000D1F08091B30087FF07C08091B4008150C1
:1007D0008093B4008093B3008091B3008F3738F4D6
:1007E0008091B4008F5F8093B4008093B300C901FF
:1007F0000197F1F7E2CF10921C0110921D011092A7
:100800001E0110921F0110921801109219011092EE
:100810001A0110921B0110921401109215011092EE
:1008200016011092170110921001109211011092EE
:1008300012011092130108954F925F926F927F926E
:10084000AF92BF92CF92DF92EF92FF920F931F93DE
:10085000CF93DF9300D000D0CDB7DEB729833A83A2
:100860004B835C8327E137EB41ED57E40E94010C99
:100870000E94A90B60930001709301018093020113
:100880009093030127E137EB41ED57E469817A81C9
:100890008B819C810E94010C0E94A90B6093040132
:1008A00070930501809306019093070127E137EBD0
:1008B00041ED57E4C801B7010E94010C0E94A90B49
:1008C000609308017093090180930A0190930B01D2
:1008D00027E137EB41ED57E4C601B5010E94010C59
:1008E0000E94A90B60930C0170930D0180930E017F
:1008F00090930F0180916F00826080936F005A9AED
:100900002D9A8D899E89AF89B88D0097A105B10573
:1009100041F1BC01CD010E949C030E94D6035A986C
:100920002D98109200011092010110920201109274
:100930000301109204011092050110920601109219
:100940000701109208011092090110920A011092F9
:100950000B0110920C0110920D0110920E011092D9
:100960000F010F900F900F900F90DF91CF911F917B
:100970000F91FF90EF90DF90CF90BF90AF907F905E
:100980006F905F904F900895AF92BF92CF92DF9299
:10099000EF92FF920F931F93CF93DF93E0912E017D
:1009A0000E2F10E00031110508F0DBC3F801EC5CFC
:1009B000FF4F0C94960C26EC35E0309326012093E3
:1009C0002501309328012093270130932A01209399
:1009D000290126EC34E030932C0120932B0120E5F3
:1009E00020932101209322012093230110922401BE
:1009F0009F938F937F936F93A12CB12C6501E12C72
:100A0000F12C06E114E420E030E044E354E470C14A
:100A100026EC35E030932601209325013093280100
:100A20002093270130932A012093290126EC34E0FA
:100A300030932C0120932B0120E52093210120935A
:100A4000220120932301109224019F938F937F937F
:100A50006F93A12CB12C6501E12CF12C02ED13E474
:100A600020E030E046EE53E460E070E08EEB93E48B
:100A700072C326EC35E03093260120932501309394
:100A800028012093270130932A012093290126EC85
:100A900034E030932C0120932B0120E52093210199
:100AA0002093220120932301109224019F938F937E
:100AB0007F936F93A12CB12C6501E12CF12C0AEFEF
:100AC00013E420E030E047E054E460E070E086EEBC
:100AD00093E441C326EC35E03093260120932501B1
:100AE000309328012093270130932A012093290174
:100AF00026EC34E030932C0120932B0120EF20933F
:100B000021011092220110922301109224019F933F
:100B10008F937F936F93A12CB12C65018601750192
:100B2000A601950160E070E08AEF93E414C326EC1F
:100B300035E030932601209325013093280120933E
:100B4000270130932A012093290126EC34E03093C9
:100B50002C0120932B0128E72093210120932201CF
:100B600010922301109224019F938F937F936F9390
:100B7000A12CB12C65018601750120E030E04CED1F
:100B800053E46CC126EC35E0309326012093250117
:100B9000309328012093270130932A0120932901C3
:100BA00026EC34E030932C0120932B0128E720938E
:100BB00021012093220110922301109224019F937E
:100BC0008F937F936F93A12CB12C650186017501E2
:100BD00020E030E040EF53E460E070E08CED93E41F
:100BE000BAC226EC35E030932601209325013093DC
:100BF00028012093270130932A012093290126EC14
:100C000034E030932C0120932B0128E7209321011D
:100C10002093220110922301109224019F938F931D
:100C20007F936F93A12CB12C65018601750120E0A3
:100C300030E04BE154E45CC026EC35E03093260113
:100C400020932501309328012093270130932A0116
:100C50002093290130932C0120932B012CE3209326
:100C600021012093220120932301209324019F93AB
:100C70008F937F936F93A12C30E8B32E32E2C32E73
:100C800035E4D32EE12C10E2F12E09E115E420E049
:100C900030EC40E055E460E070E08FEA94E45BC241
:100CA00026EC35E03093260120932501309328016E
:100CB0002093270130932A012093290126EC34E068
:100CC00030932C0120932B0120EF209321011092CF
:100CD000220110922301109224019F938F937F93FE
:100CE0006F93A12CB12C650186017501A6019501B8
:100CF00060E070E080EF93E42EC226EC35E03093A4
:100D00002601209325013093280120932701309359
:100D10002A012093290126EC34E030932C01209302
:100D20002B0120EF20932101109222011092230128
:100D3000109224019F938F937F936F93A12CB12CDA
:100D4000650186017501A601950160E070E08BE701
:100D500094E401C226EC34E030932601209325016F
:100D6000309328012093270130932A0120932901F1
:100D700030932C0120932B0124E120932101209317
:100D800022012093230124EB209324019F938F932E
:100D90007F936F93A12CB12C24E0C22E22E4D22E9B
:100DA00026C026EC34E030932601209325013093B1
:100DB00028012093270130932A01209329013093A1
:100DC0002C0120932B0124E1209321012093220167
:100DD0002093230124EB209324019F938F937F93EF
:100DE0006F93A12CB12C95E0C92E93E4D92EE12C60
:100DF000F12C08EC13E420E030E047EB53E460E032
:100E000070E089ED93E4A7C126EC35E0309326012C
:100E100020932501309328012093270130932A0144
:100E20002093290126EC34E030932C0120932B01F0
:100E300028E7209321012093220110922301109290
:100E400024019F938F937F936F93A12CB12C650105
:100E50008601750120E030E041EE53E460E070E08F
:100E60008FEA93E478C126EC35E030932601209395
:100E70002501309328012093270130932A012093E4
:100E8000290126EC34E030932C0120932B0128E734
:100E9000209321012093220110922301109224011A
:100EA0009F938F937F936F93A12CB12C6501860143
:100EB000750120E030E041EE53E428C026EC35E037
:100EC0003093260120932501309328012093270198
:100ED00030932A012093290126EC34E030932C0131
:100EE00020932B0120EF20932101109222011092D8
:100EF0002301109224019F938F937F936F93A12CD2
:100F0000B12C650186017501A601950160E070E0D4
:100F100088EC93E420C120912D012111F5C086ECCD
:100F200093E0909326018093250186EC95E09093C1
:100F300028018093270186EC94E090932A01809306
:100F4000290190932C0180932B018AEF809321013A
:100F5000109222011092230110922401109200019C
:100F600010920101109202011092030110920401EB
:100F700010920501109206011092070110920801CB
:100F80001092090110920A0110920B0110920C01AB
:100F900010920D0110920E0110920F0180916F00BE
:100FA000826080936F005A9A2D9AC6E0D0E006E3E3
:100FB00012E0F801659175918591949127E137EBE5
:100FC00041ED57E40E94010C0E94A90B60930001BF
:100FD0007093010180930201909303011092040128
:100FE000109205011092060110920701109208015B
:100FF0001092090110920A0110920B0110920C013B
:1010000010920D0110920E0110920F0165E070E038
:1010100080E090E00E949C030C5F1F4F83E0063C41
:10102000180739F606EA10E0F80165917591859187
:10103000949127E137EB41ED57E40E94010C0E94A7
:10104000A90B6093000170930101809302019093BA
:1010500003011092040110920501109206011092F2
:101060000701109208011092090110920A011092D2
:101070000B0110920C0110920D0110920E011092B2
:101080000F0165E070E080E090E00E949C030C5F3F
:101090001F4F82E00633180739F6219709F087CFF2
:1010A0000E94D6035A982D981092000110920101C7
:1010B0001092020110920301109204011092050196
:1010C0001092060110920701109208011092090176
:1010D00010920A0110920B0110920C0110920D0156
:1010E00010920E0110920F0164EF71E080E090E029
:1010F000DF91CF911F910F91FF90EF90DF90CF90F4
:10110000BF90AF900C949C0326EC35E03093260101
:1011100020932501309328012093270130932A0141
:101120002093290130932C0120932B01109221014F
:101130001092220110922301109224019F938F9309
:101140007F936F93A12CB12C650186017501A601D7
:101150009501C601B5010E941C040F900F900F90DD
:101160000F90DF91CF911F910F91FF90EF90DF9043
:10117000CF90BF90AF9008951F920F920FB60F922D
:1011800011242F933F938F939F93AF93BF9380919D
:10119000300190913101A0913201B0913301309131
:1011A0002F0123E0230F2D3720F40196A11DB11D3F
:1011B00005C026E8230F0296A11DB11D20932F0123
:1011C0008093300190933101A0933201B0933301A9
:1011D0008091340190913501A0913601B091370191
:1011E0000196A11DB11D8093340190933501A09308
:1011F0003601B0933701BF91AF919F918F913F918D
:101200002F910F900FBE0F901F9018951F920F9265
:101210000FB60F9211244F925F926F927F92BF92FE
:10122000CF92DF92EF92FF920F931F932F933F93F2
:101230004F935F936F937F938F939F93AF93BF93DE
:10124000CF93DF93EF93FF9385E291E0DC01ED9183
:10125000FC91A0E0B1E00D911D912D913C9113976F
:1012600040E1E42E41E0F42EE701488159816A8192
:101270007B81040F151F261F371F088319832A83BC
:101280003B83032F112722273327E00FF11F0491FF
:10129000C1E2D1E0C880FC012281338114964D91D6
:1012A0005D916D917C911797F70144805580668020
:1012B0007780440D551D661D771D448355836683D5
:1012C0007783472F552766277727F901E40FF51F06
:1012D0001491B980FC012481358118964D915D915E
:1012E0006D917C911B97F7014084518462847384D3
:1012F000440D551D661D771D408751876287738792
:10130000472F552766277727F901E40FF51F3491FA
:10131000DA80FC01668077801C968D919D910D90FE
:10132000BC91A02DF7014485558566857785840F8E
:10133000951FA61FB71F84879587A687B7878B2F12
:101340009927AA27BB27F301E80FF91F24914B81A6
:101350005C2D0503C00111245B2D1503F001112440
:101360008F2F890F81585D2D3503F00111248F0FC8
:101370002403F00111248F0F8093B4008093B300F5
:10138000FF91EF91DF91CF91BF91AF919F918F919D
:101390007F916F915F914F913F912F911F910F918D
:1013A000FF90EF90DF90CF90BF907F906F905F9015
:1013B0004F900F900FBE0F901F901895789484B5A2
:1013C000826084BD84B5816084BD85B5826085BD41
:1013D00085B5816085BD80916E00816080936E00CF
:1013E00010928100809181008260809381008091C1
:1013F0008100816080938100809180008160809372
:1014000080008091B10084608093B1008091B00031
:1014100081608093B00080917A00846080937A002C
:1014200080917A00826080937A0080917A00816056
:1014300080937A0080917A00806880937A0010927D
:10144000C1008AB18F708AB98BB1806F8BB984B1BA
:10145000807F84B985B18F6085B9539A529A259A55
:101460005A982D981092800089E080938100109204
:10147000820080E991E090938900809388008091B8
:101480006F00826080936F00789483E080932001E6
:1014900083E28093B00081E08093B1008FE7809376
:1014A000B4008093B300539A86EC95E090932601A4
:1014B00080932501909328018093270190932A011E
:1014C0008093290186EC94E090932C0180932B016A
:1014D0008CE38093210180932201809323018093E8
:1014E0002401C0E0D0E089B182958F7080958F7023
:1014F00080932E0183B18095E82FEF70E0932D014A
:101500008E2F90E0FC013197EF30F10520F4EC5B79
:10151000FF4F0C94960C60E070E0CB010E94C40475
:1015200012C16AEF70E080E090E00E94C4046AEFAC
:1015300070E080E090E005C168EC70E080E090E051
:101540000E94C4046CE271E080E090E0FAC06CE2BA
:1015500071E080E090E00E94C40468EC70E080E0FC
:1015600090E0EFC064EF71E080E090E00E94C4047E
:1015700064EF71E080E090E0E4C064E670E080E059
:1015800090E00E94C40464E670E080E090E0D9C07E
:1015900060ED77E080E090E00E94C40460EA7FE0C4
:1015A00080E090E0CEC068EE73E080E090E00E94C2
:1015B000C40468EE73E080E090E00E949C0368EE53
:1015C00073E080E090E00E94C40468EB7BE080E080
:1015D00090E0B7C06CED75E080E090E00E94C4043C
:1015E00064EF71E080E090E00E949C0364EF71E0A2
:1015F00080E090E00E94C4046CEA7DE080E090E02E
:10160000A0C06CED75E080E090E00E94C40464EF3F
:1016100071E080E090E00E949C0364EF71E080E064
:1016200090E00E94C40464EF71E080E090E00E94CA
:101630009C0364EF71E080E090E00E94C40464ECDD
:1016400079E080E090E07DC06CED75E080E090E0B6
:101650000E94C40464EF71E080E090E00E949C036B
:1016600064EF71E080E090E00E94C40464EF71E0F8
:1016700080E090E00E949C036CED75E080E090E0DB
:101680000E94C4046CED75E080E090E05AC060E90F
:1016900071E080E090E00E94C40468EC70E080E0BB
:1016A00090E00E949C0360E971E080E090E00E947D
:1016B000C40460ED77E080E090E043C068EC70E047
:1016C00080E090E00E94C40460E971E080E090E076
:1016D0000E949C0360ED77E080E090E00E94C404EB
:1016E00060E971E080E090E02CC067E771E080E0A5
:1016F00090E00E94C40467E771E080E090E021C0C0
:1017000060E971E080E090E00E94C4046EE571E061
:1017100080E090E00E949C0361EE70E080E090E049
:101720000E94C4046DE072E080E090E00AC06EEEBA
:1017300072E080E090E00E94C4046EEE72E080E00F
:1017400090E00E949C03209709F4CDCE0E940000F7
:10175000CACE0E94E00B88F09F5798F0B92F9927C6
:10176000B751B0F0E1F0660F771F881F991F1AF08C
:10177000BA95C9F714C0B13091F00E94FA0BB1E0EC
:1017800008950C94FA0B672F782F8827B85F39F0EB
:10179000B93FCCF3869577956795B395D9F73EF425
:1017A00090958095709561957F4F8F4F9F4F0895CD
:1017B00057FD9058440F551F59F05F3F71F0479502
:1017C000880F97FB991F61F09F3F79F087950895E7
:1017D000121613061406551FF2CF4695F1DF08C006
:1017E000161617061806991FF1CF86957105610523
:1017F00008940895E894BB2766277727CB0197F9CB
:1018000008950E94140C0C94850C0E94770C38F0FB
:101810000E947E0C20F0952311F00C946E0C0C9419
:10182000740C11240C94FB0B0E94D80B70F3959F41
:10183000C1F3950F50E0551F629FF001729FBB27C7
:10184000F00DB11D639FAA27F00DB11DAA1F649F63
:101850006627B00DA11D661F829F2227B00DA11D16
:10186000621F739FB00DA11D621F839FA00D611D9C
:10187000221F749F3327A00D611D231F849F600DBD
:10188000211D822F762F6A2F11249F5750409AF0E6
:10189000F1F088234AF0EE0FFF1FBB1F661F771F72
:1018A000881F91505040A9F79E3F510580F00C943D
:1018B0006E0C0C94FB0B5F3FE4F3983ED4F38695DB
:1018C00077956795B795F795E7959F5FC1F7FE2BDD
:1018D000880F911D9695879597F9089597F99F67B9
:1018E00080E870E060E008959FEF80EC08950024A8
:1018F0000A941616170618060906089500240A9475
:1019000012161306140605060895092E0394000CFA
:1019100011F4882352F0BB0F40F4BF2B11F460FF89
:1019200004C06F5F7F4F8F4F9F4F0895EE0FFF1FD3
:0C1930000590F491E02D0994F894FFCF8D
:107E0000112484B714BE81FFF0D085E080938100F7
:107E100082E08093C00088E18093C10086E0809377
:107E2000C20080E18093C4008EE0C9D0259A86E02C
:107E300020E33CEF91E0309385002093840096BBD3
:107E4000B09BFECF1D9AA8958150A9F7CC24DD24C4
:107E500088248394B5E0AB2EA1E19A2EF3E0BF2EE7
:107E6000A2D0813461F49FD0082FAFD0023811F036
:107E7000013811F484E001C083E08DD089C08234E0
:107E800011F484E103C0853419F485E0A6D080C0E4
:107E9000853579F488D0E82EFF2485D0082F10E0AE
:107EA000102F00270E291F29000F111F8ED06801E7
:107EB0006FC0863521F484E090D080E0DECF843638
:107EC00009F040C070D06FD0082F6DD080E0C81688
:107ED00080E7D80618F4F601B7BEE895C0E0D1E017
:107EE00062D089930C17E1F7F0E0CF16F0E7DF06D8
:107EF00018F0F601B7BEE89568D007B600FCFDCFD4
:107F0000A601A0E0B1E02C9130E011968C91119780
:107F100090E0982F8827822B932B1296FA010C0160
:107F200087BEE89511244E5F5F4FF1E0A038BF0790
:107F300051F7F601A7BEE89507B600FCFDCF97BE46
:107F4000E89526C08437B1F42ED02DD0F82E2BD052
:107F50003CD0F601EF2C8F010F5F1F4F84911BD097
:107F6000EA94F801C1F70894C11CD11CFA94CF0C13
:107F7000D11C0EC0853739F428D08EE10CD085E9AC
:107F80000AD08FE07ACF813511F488E018D01DD067
:107F900080E101D065CF982F8091C00085FFFCCF94
:107FA0009093C60008958091C00087FFFCCF809118
:107FB000C00084FD01C0A8958091C6000895E0E648
:107FC000F0E098E1908380830895EDDF803219F02E
:107FD00088E0F5DFFFCF84E1DECF1F93182FE3DFCA
:107FE0001150E9F7F2DF1F91089580E0E8DFEE27F6
:047FF000FF270994CA
:027FFE00040479
:0400000300007E007B
:00000001FF
